:040000000C94B400A8
:040028000C945309D8
:040048000C943201E1
:040078000C9482035F
:14008C005B0A7D0A940AB60AE00AF90A120B2C0B620BD20B8B
:1400A000370CB60DB60DB60DB60DB60DB60DB60DB60DB60D2E
:1400B400B60DB60DB60DB60D5D0C546F494D30303241563110
:1400C8002E3061303201000000000000000000000000000002
:1400DC0000000000000000000100000000000000000100000E
:1400F0000000000000000000000000000000000000000000FC
:140104000000000000000000000000000000000000000000E7
:14011800000000000000000000000000A0A1A2A3A4A5FFFF06
:14012C00FFFFFFFF00000000000000000000000000000000C3
:140140000000000000000000000000000000000000000000AB
:14015400000000000000000000000000000000000000000097
:14016800CFEFD0E1CDBFDEBFCE51D0400AEA08830024EAEA45
:14017C00F1E013E0E63EF10711F00192FBCF0083EEEBF0E005
:14019000A0E0B1E011E000E00BBFE836F10721F0C895319664
:1401A4000D92F9CF0E94DC0EFFCF4A935A930EC04427552707
:1401B80002C04F5F5F4F4632E6E05E07D0F3000000000000AF
:1401CC00015010400030010779F75991499108954A935A93AB
:1401E0004427552703C000004F5F5F4F40175107D0F35991A9
:1401F4004991089581E08BBB8FEF8ABB80E288BB87BB80E4CB
:1402080085BB88E784BB82E082BB8AE081BB222423B884E02A
:14021C0082B9209262002092610020926500209264000895A2
:14023000A8958FE181BD8FE081BD0895222425BC88ED83BDA9
:140244008DE085BD089522242AB82BB886E0809395008BE0D6
:1402580089B92092900088E98AB908950A921A922A923A92ED
:14026C004A925A926A927A928A929A920A931A932A933A9392
:140280008A939A93AA93BA93EA93FA930FB60A920E94FD1676
:140294008CE193E0E0911001FF27E80FF91F2CB02082409170
:1402A800260155274130E0E05E0759F04230E0E05E0709F42C
:1402BC00A7C04330E0E05E0709F46BC1D1C180E02090100153
:1402D000821508F07FC080911C03803101F580911D03843090
:1402E400E1F4442709C08CE193E0E42FFF27E80FF91F22248F
:1402F80020824395209010013324442E5524241435047CF791
:14030C008FEF8093100104E0D9D181E080932601A7C1809199
:140320001C038031F1F480911D038230D1F4442709C08CE1CB
:1403340093E0E42FFF27E80FF91F2224208243952090100179
:140348003324442E5524241435047CF78FEF8093100182E077
:14035C008093260185C180911C038031F1F480911D03853061
:14037000D1F4442709C08CE193E0E42FFF27E80FF91F222412
:1403840020824395209010013324442E5524241435047CF704
:140398008FEF8093100181E08093940363C1442709C08CE1DF
:1403AC0093E0E42FFF27E80FF91F2224208243952090100101
:1403C0003324442E5524241435047CF78FEF809310014CC154
:1403D40080911C03803109F447C1442709C08CE193E0E42F08
:1403E800FF27E80FF91F222420824395209010013324442E82
:1403FC005524241435047CF78FEF8093100130C18AEF90E014
:14041000909318018093170180911C038031F1F480911D037A
:140424008230D1F4442709C08CE193E0E42FFF27E80FF91FF1
:14043800222420824395209010013324442E5524241435047C
:14044C007CF78FEF8093100182E08093260108C180911C03F2
:14046000803101F580911D038430E1F4442709C08CE193E013
:14047400E42FFF27E80FF91F22242082439520901001332454
:14048800442E5524241435047CF78FEF8093100104E016D124
:14049C0081E080932601E4C0209010018AE193E0E22DFF2739
:1404B000E80FF91F8081803109F0D8C08BE193E0E22DFF27D2
:1404C400E80FF91F8081833009F0CEC0422D4250AA240BC040
:1404D8008CE193E0E42FFF27E80FF91F8081803129F4A394E2
:1404EC004A9580E0841790F3A0FEBAC04427AA241AC08CE107
:1405000093E0EA2DFF27E80FF91F8081803109F4A3948CE1D5
:1405140093E0EA2DFF27E80FF91F208088E593E0E42FFF275B
:14052800E80FF91F20824395A394809110018250A81608F352
:14053C00242F08E513E0B2D0A02E8CE193E0E0911001FF27A0
:14055000E80FF91F2080021531F005E1B5D081E080932601AA
:1405640005C006E0AFD083E080932601442709C08CE193E0A8
:14057800E42FFF27E80FF91F2224208243952090100133244F
:14058C00442E5524241435047CF78FEF8093100167C08091B2
:1405A0001C038031F1F480911D038530D1F481E080939403DC
:1405B400442709C08CE193E0E42FFF27E80FF91F22242082EF
:1405C8004395209010013324442E5524241435047CF78FEFE2
:1405DC008093100145C080911C038031F1F480911D03823039
:1405F000D1F4442709C08CE193E0E42FFF27E80FF91F222490
:1406040020824395209010013324442E5524241435047CF781
:140618008FEF8093100182E08093260123C080911C038031CC
:14062C00F9F480911D038430D9F4442709C08CE193E0E42FF4
:14064000FF27E80FF91F222420824395209010013324442E27
:140654005524241435047CF78FEF8093100104E031D081E04D
:1406680080932601809110018F5F809310010E9402170990BC
:14067C000FBEF991E991B991A99199918991399129911991A3
:1406900009919990899079906990599049903990299019908B
:1406A40009901895AA92AA2405C0F8012080A2240F5F1F4FF2
:1406B800222E332421502220B1F70A2DA9900895AA92A02E15
:1406CC0000E104D00A2D02D0A99008955D9BFECF0CB908955F
:1406E000222420929A0082E080939B0086E080939D008BE0E3
:1406F400809399002092980088E980939A0008952A923A92B9
:140708000A931A932A938A939A93AA93EA93FA932FB62A92A4
:14071C000E94111701E066274427222783B3992787709070F0
:140730005C018030890791F08130E0E09E0709F432C08230E0
:14074400E0E09E0771F18430E0E09E07D1F08630E0E09E07E5
:1407580031F04BC020909C002092110146C08AEA91E0E091F5
:14076C00BE01FF27E80FF91F20909C0020828091BE018F5FD9
:140780008093BE0136C080EC91E0E091D401FF27E80FF91F45
:1407940020909C0020828091D4018F5F8093D40126C08EE94A
:1407A80093E0E0919D03FF27E80FF91F20909C0020822090E6
:1407BC009D03222049F420909E03822D863018F088E4821549
:1407D00008F418C180919D038F5F80939D0320909E03821506
:1407E40030F081E080939C03222420929D0389EA91E0E091E1
:1407F800BE01FF27E80FF91F8081803809F07AC010C0202EEF
:14080C003324E091BE01FF27E219F3098AEA91E0E80FF91F40
:1408200080818F3709F006C06395202E33240F5F222059F7A1
:1408340060FD62C02090AA012092060301E041E01AC08AEACB
:1408480091E0E02FFF27E80FF91F80818F3709F403958AEA17
:14085C0091E0E02FFF27E80FF91F208086E093E0E42FFF2721
:14087000E80FF91F2082039543952090BE01021510F361E089
:1408840009C086E093E0E62FFF27E80FF91F2080220D6395AD
:14089800842F8250681798F384E093E0E42FFF27E80FF91F9E
:1408AC002080221589F0002709C086E093E0E02FFF27E80FF3
:1408C000F91F2224208203950431A8F322242092BE0113C032
:1408D400002709C08AEA91E0E02FFF27E80FF91F222420820F
:1408E80003950431A8F381E080931B0322242092BE01222702
:1408FC008FEB91E0E091D401FF27E80FF91F8081803809F0D0
:1409100079C010C0202E3324E091D401FF27E219F30980EC56
:1409240091E0E80FF91F80818F3709F006C06395A02EBB2414
:140938000F5FAA2059F760FD61C02090C0012092F00201E0AF
:14094C0041E01AC080EC91E0E02FFF27E80FF91F80818F37B4
:1409600009F4039580EC91E0E02FFF27E80FF91F208080EFBE
:1409740092E0E42FFF27E80FF91F2082039543952090D4011E
:14098800021510F361E009C080EF92E0E62FFF27E80FF91F0C
:14099C002080220D6395842F8250681798F38EEE92E0E42FF0
:1409B000FF27E80FF91F2080221589F0002709C080EF92E0DD
:1409C400E02FFF27E80FF91F2224208203950431A8F3222445
:1409D8002092D40113C0002709C080EC91E0E02FFF27E80FB8
:1409EC00F91F2224208203950431A8F381E0809305032224CD
:140A00002092D4010E94181729902FBEF991E991A99199917C
:140A14008991299119910991399029901895AA92A02E5D9B85
:140A2800FECFA0929C0000E213E0D4DBA9900895F8942224F3
:140A3C002CBE20926D00DADBF5DBFADB00DC4ADE222425BE16
:140A500087E080936C0020926A0081E08ABF29BE28BE87BFD3
:140A640020927D00789408958EE080939D0023C00EE110E0C6
:140A78009ADBAE9891980CE211E095DB919A38D00CEB12E01B
:140A8C0090DB85B3877C85BB0EE110E08ADB8FEB8093990006
:140AA00002E010E084DB04EFBCDF09E110E07FDB23D0AE9A14
:140AB4000CE211E07ADB80911101843FC9F68BE0809399003E
:140AC80086E080939D00AD9AAC9AAB98AE9803E00E94361023
:140ADC0000E2A1DF08EE13E064DB08D000E29BDF08EE13E05F
:140AF0005EDB02D00C94FA114A9380910F01813009F4A89553
:140B040088EE92E0E0EEF2E008E010E0FA93EA939A938A9329
:140B18000E94331744270EC001E0142F0E942D1726B2202280
:140B2C0088EE92E0E42FFF27E80FF91F20824395483080F320
:140B40008091E802813049F48091E002813029F081E0809387
:140B54001201D99A14C08091E902823021F48091E1028230CA
:140B680041F48091EA02843041F48091E202843021F022245E
:140B7C0020921201D998499108950E941117A801EE978091AF
:140B9000E8028130B9F48091E902823099F48091EA0284301D
:140BA40079F42090EB02222059F42090EC02222039F4CA01CC
:140BB8000596FC0180818E7F808306C0CA010596FC01808156
:140BCC008160808303E00E94361001E00E94121462E00AC0B1
:140BE0006A9541F4CA0104965C01FC0180818D7F808307C037
:140BF4009E0106E20E94ED14A02E002379F7662339F0CA01E5
:140C080004965C01FC01808182608083222420920B03209246
:140C1C000C032092160322E101E00E94270F83E090E0909338
:140C30001401809313010EC05FDF80910B03803A49F4809141
:140C44000C03823129F480911603803809F408C02090130152
:140C580030901401222061F7332051F7222420921B032090B8
:140C6C00130130901401222019F4332009F42EC0209011033A
:140C800024FE08C0CA0104965C01FC0180818061808307C00B
:140C9400CA0104965C01FC0180818F7E80832090110325FE95
:140CA80008C0CA0104965C01FC0180818160808307C0CA013A
:140CBC0004965C01FC0180818E7F8083CA0105965C01FC015F
:140CD00080818D7F80830AC086E6FA018383CF0105965C0101
:140CE400FC0180818260808304E00E94361002E00E941214A3
:140CF80062E00AC06A9541F4CA0104965C01FC018081877FE2
:140D0C00808307C09E0106E20E94ED14A02E002379F76623F5
:140D200039F0BA016C5F7F4FFB018081886080832224209262
:140D3400F5022092F6022092160322E102E00E94270F83E01F
:140D480090E090931401809313010EC0D1DE8091F502803A89
:140D5C0049F48091F602823129F480910003803809F408C0DC
:140D70002090130130901401222061F7332051F722242092A9
:140D840005032090130130901401222019F4332009F42EC02D
:140D98002090FB0224FE08C0BA016C5F7F4FFB01808180627D
:140DAC00808307C0BA016C5F7F4FFB0180818F7D8083209059
:140DC000FB0225FE08C0BA016C5F7F4FFB01808184608083FF
:140DD40007C0BA016C5F7F4FFB0180818B7F8083BA016B5F61
:140DE8007F4FFB0180818B7F80830AC087E6FA018383BF0127
:140DFC006B5F7F4FFB0180818460808380911201813041F45D
:140E1000BA016C5F7F4FFB0180818064808306C04C5F5F4F77
:140E2400FA0180818F7B8083EE960C941817AA92BA9258017D
:140E38005FDE8501A4DEB990A99008950E940717A801C5987C
:140E4C0087D79AD708EC10E0ACD950DEC59AA8D7AAD708ECD9
:140E600010E0A5D949DEC5982090E0023090E802321439F4DD
:140E7400CA010496FC0180818160808306C0CA010496FC01FB
:140E880080818E7F80832090E1023090E902321441F4BA01D1
:140E9C006C5F7F4FFB0180818260808307C0BA016C5F7F4FAC
:140EB000FB0180818D7F80832090E2023090EA02321441F467
:140EC400BA016C5F7F4FFB0180818460808307C0BA016C5F95
:140ED8007F4FFB0180818B7F80832090E3023090EB023214A6
:140EEC0041F4BA016C5F7F4FFB0180818860808307C0BA01FF
:140F00006C5F7F4FFB018081877F80832090E4023090EC02FA
:140F1400321441F4BA016C5F7F4FFB0180818061808306C053
:140F28004C5F5F4FFA0180818F7E8083E1DD22242092120187
:140F3C000C940C170E941117A901A02E63E0BB24C501813003
:140F5000E0E09E0781F08230E0E09E0709F452C08330E0E01E
:140F64009E0709F494C08430E0E09E0709F4FFC06EC12090CF
:140F78001201222009F03AC020E601E00E94270F88EE93E075
:140F8C0090931401809313010FC0B0DD80910B03813A51F477
:140FA00080910E03813031F4DA9A80911201813009F408C037
:140FB4002090130130901401222059F7332049F720901301A7
:140FC80030901401222051F4332041F42224FA01268285E6DD
:140FDC00828382E4838337C181E0FA01868383E7828322247E
:140FF00023822FC187E7FA01828383E083832224268227C1AB
:1410040020901201222009F03AC020E602E00E94270F88EEAA
:1410180093E090931401809313010FC069DD8091F502813A1A
:14102C0051F48091F802813031F4DB9A80911201813009F443
:1410400008C02090130130901401222059F7332049F7209066
:14105400130130901401222051F4332041F42224FA012682A7
:1410680085E6828383E48383F0C081E0FA01868383E7828313
:14107C0022242382E8C087E7FA01828383E083832224268208
:14109000E0C0DA98DB9880911201813009F05EC043C05CD6A6
:1410A40084E190E0909314018093130106C022DD8091EB0241
:1410B800883009F408C020901301309014012220A1F73320E1
:1410CC0091F72090130130901401222049F4332039F485E685
:1410E000FA01828384E6838361D6B3C082E390E090931401D5
:1410F4008093130106C0FEDC20901201222009F408C02090A7
:141108001301309014012220A1F7332091F74AD62090120152
:14111C00222009F409C004E610E043D8262E33246150222024
:1411300009F0B7CF20901201222041F481E0FA01868383E723
:141144008283222423820FC02224FA01268285E6828380E41B
:14115800838307C087E7FA01828381E083832224268206E904
:14116C0010E01FD870C0DA98DB9880911201813009F05EC087
:1411800043C000D684E190E0909314018093130106C0B2DCFA
:141194008091EC02803109F408C020901301309014012220F7
:1411A800A1F7332091F72090130130901401222041F433205D
:1411BC0031F485E6FA0182838383F5D544C082E390E09093C3
:1411D00014018093130106C08FDC20901201222009F408C0D4
:1411E40020901301309014012220A1F7332091F7DED5209046
:1411F8001201222009F40AC004E610E00E94D700262E3324C9
:14120C006150222009F0B7CF20901201222041F481E0FA01C6
:14122000868383E78283222423820FC02224FA01268285E634
:14123400828380E4838307C087E7FA01828381E08383222455
:14124800268208EC10E00E94D7000C9418170E94F4165801B9
:14125C00A501FA01C0804F5F5F4F2C2D8A011EDAA02E00E1B6
:1412700033DA02E031DAEE240CC0FA018081803111F400E1FF
:1412840029DAFA01008126DA4F5F5F4FE394EC1490F300E1A0
:141298001FDA03E01DDA0A2D1BDA0C94DE160A921A922A92AB
:1412AC003A924A925A926A927A928A929A920A931A932A9343
:1412C0003A938A939A93AA93BA93EA93FA930FB60A92AA92D2
:1412D40080912601823051F52090170130901801222011F4EE
:1412E800332039F0C101019790931801809317011BC005E1F4
:1412FC00E5D981E080932601AA2409C08CE193E0EA2DFF27D1
:14131000E80FF91F22242082A3942090100133244A2C552494
:14132400241435047CF78FEF80931001209013013090140196
:14133800222011F4332031F0C101019790931401809313012D
:14134C002090150130901601222011F4332031F0C1010197DB
:141360009093160180931501809119018130A1F420902901CB
:14137400222029F484E6809329011A9A05C0809129018233F6
:1413880009F41A98809129018150809329011DC08091190151
:14139C008230A1F420902901222029F482E3809329011A9A67
:1413B00005C080912901893109F41A988091290181508093A1
:1413C400290105C020901901222009F41A98209027013090D3
:1413D8002801222011F4332031F0C101019790932801809364
:1413EC002701A99009900FBEF991E991B991A991999189915A
:1414000039912991199109919990899079906990599049900A
:14141400399029901990099018950E94111724974427809152
:141428009403813009F0AEC381E08093260160915803772779
:14143C006138E0E07E0794F089E990E0861797078CF08CE82D
:1414500090E0FB01E158F040EE0FFF1FE80FF91F279036900C
:14146400F10109946030670701F17EC3633EE0E07E0709F4D1
:1414780055C2643EE0E07E0709F486C2653EE0E07E0709F438
:14148C00B8C2663EE0E07E0709F4EDC2673EE0E07E0709F456
:1414A0001FC3683EE0E07E0709F44DC35FC306ED11E0D1DEA9
:1414B4005BC3209058032092D70122242092D90106ED11E0BB
:1414C8008AD306ED11E0B1DC2090D901222021F085E68093E7
:1414DC00D80103C083E78093D80186E08093D60106ED11E0D6
:1414F000B2DE81E08093190139C3209058032092D70106ED46
:1415040011E095DC83E78093D80122242092D90185E08093D1
:14151800D60106ED11E09BDE81E08093190122C3209058030D
:14152C002092D70122242092D90106ED11E051D306ED11E063
:1415400078DC2090D901222021F085E68093D80103C083E7E2
:141554008093D80186E08093D60106ED11E079DE81E0809398
:14156800190100C3209058032092D70180915903813011F0DE
:14157C00823081F426ED31E000915903DBDC06ED11E051DC5B
:141590008091D801833769F422242092D90109C085E680932D
:1415A400D80181E38093D90181E08093190186E08093D6012B
:1415B80006ED11E04CDED6C2209058032092D70126ED31E0C0
:1415CC0003E0B8DC06ED11E02EDC8091D801833719F42224AF
:1415E0002092D90186E08093D60106ED11E033DEBDC22090F7
:1415F40058032092D70126ED31E004E09FDC06ED11E015DCA6
:141608008091D801833719F422242092D90186E08093D601FB
:14161C0006ED11E01ADEA4C2209058032092D70106ED11E0FF
:1416300000DC83E78093D80122242092D90185E08093D60153
:1416440006ED11E006DE222420920F0181E0809319018AC2E8
:141658006AED71E0209058032092D70183E78093D8012224A5
:14166C002092D90144270CC080E091E0E42FFF27E80FF91F8E
:141680002080FB0120826F5F7F4F4395483090F344270CC072
:1416940088E091E0E42FFF27E80FF91F2080FB0120826F5F15
:1416A8007F4F4395473090F382E18093D60106ED11E0CDDDB3
:1416BC0081E08093190154C2209058032092D7018091590374
:1416D000813019F0823009F055C021E6009159030E94270FC0
:1416E40004E610E00E94D70080915903813021F580910B034C
:1416F800803921F480910C03813641F080910B03813A71F4C9
:14170C0080910C03813651F483E78093D80122242092D90185
:1417200081E08093190137C085E68093D8018BE48093D9017D
:1417340082E0809319012DC08091F502803921F48091F60246
:14174800813641F08091F502813A71F48091F602813651F478
:14175C0083E78093D80122242092D90181E08093190113C0F0
:1417700085E68093D8018BE48093D90182E08093190109C05A
:1417840085E68093D80181E38093D90181E08093190183E0B8
:141798008093D60106ED11E05ADDE4C1209058032092D701FE
:1417AC0080915903813019F0823009F04AC08091590381302F
:1417C00019F520902A01222051F485E68093D8018AE48093CD
:1417D400D90182E08093190141C083E78093D8012224209249
:1417E800D90120900B022092DA0120900C022092DB01222437
:1417FC0020922A0181E0809319012CC020902B01222051F41F
:1418100085E68093D8018AE48093D90182E0809319011EC0A5
:1418240083E78093D80122242092D90120900D022092DA013C
:1418380020900E022092DB01222420922B0181E0809319019C
:14184C0009C085E68093D80181E38093D90181E08093190189
:1418600085E08093D60106ED11E0F5DC7FC120905803209273
:14187400D70180915903813011F0823061F422E6009159036D
:141888000E94270F83E78093D80122242092D90109C085E618
:14189C008093D80181E38093D90181E08093190183E08093F7
:1418B000D60106ED11E0CFDC59C1209058032092D7018091FE
:1418C4005903833011F08430D9F48AED91E09983888321E06F
:1418D800009159030E94CA100093D901002339F483E7809359
:1418EC00D80181E08093190110C085E68093D80182E08093E5
:14190000190109C085E68093D80181E38093D90181E08093D4
:14191400190181E18093D60106ED11E09ADC24C1209058030F
:141928002092D70180915903833011F08430E1F48BE593E094
:14193C009983888320915A03009159030E9465100093D901F1
:14195000002339F483E78093D80181E08093190110C085E614
:141964008093D80182E08093190109C085E68093D80181E370
:141978008093D90181E08093190183E08093D60106ED11E0AF
:14198C0064DCEEC0209058032092D70180915903833011F0A3
:1419A0008430E9F48AED91E09983888320915A030091590398
:1419B4000E94CA10A02EA092D901002339F483E78093D80123
:1419C80081E08093190110C085E68093D80182E080931901C7
:1419DC0009C085E68093D80181E38093D90181E080931901F8
:1419F00083E18093D60106ED11E02DDCB7C020905803209274
:141A0400D70180915903833011F0843001F58CE593E09B8329
:141A18008A8320905B03288220915A03009159030E942D111A
:141A2C00A02EA092D901002339F483E78093D80181E08093B2
:141A4000190110C085E68093D80182E08093190109C085E68E
:141A54008093D80181E38093D90181E08093190183E080933D
:141A6800D60106ED11E0F3DB7DC0209058032092D7018091FE
:141A7C005903833011F08430E9F48AED91E0998388832091F5
:141A90005A03009159030E946A11A02EA092D901002339F4B1
:141AA40083E78093D80181E08093190110C085E68093D80123
:141AB80082E08093190109C085E68093D80181E38093D9011A
:141ACC0081E08093190183E38093D60106ED11E0BCDB46C0A7
:141AE000209058032092D70180915903833011F08430C9F4CB
:141AF4002AED31E0009159030E94A311A02EA092D901002376
:141B080039F483E78093D80181E08093190110C085E680936A
:141B1C00D80182E08093190109C085E68093D80181E38093B6
:141B3000D90181E08093190189E08093D60106ED11E089DB9E
:141B440013C0209058032092D70106ED11E078D983E7809373
:141B5800D80122242092D90184E08093D60106ED11E075DB4C
:141B6C00442709C088E593E0E42FFF27E80FF91F2224208221
:141B800043954C33A8F322242092940380910B03813A79F489
:141B940080910C03813659F420900D0320920B0220900E03D9
:141BA80020920C0281E080932A018091F502813A79F4809189
:141BBC00F602813659F42090F70220920D022090F802209253
:141BD0000E0281E080932B0124960C9418174A935A93A80155
:141BE4000E947C05CDD082E390E0909314018093130102C037
:141BF8000E947C0520901301309014012220C1F73320B1F728
:141C0C00D2D022242092120120E401E00E94270F20E402E074
:141C20000E94270F04EF11E00E94D7000E947C0504EF11E074
:141C34000E94D7000E947C0504EF11E00E94D7000E947C0580
:141C480004EF11E00E94D7000E947C0521E401E00E94270F4A
:141C5C0021E402E00E94270F8AEF90E0909316018093150169
:141C700013C00E947C0580910B03803A69F480910C03803460
:141C840049F48091F502803A29F48091F602803409F408C0AE
:141C98002090150130901601222039F7332029F759D06CD051
:141CAC0004E610E00E94D7000E947C052090E3023090EB026C
:141CC000321419F484E6FA0183832090E4023090EC023214C8
:141CD40019F485E6FA01838367D069D0C59A04E610E00E9438
:141CE800D7000E947C05C5982090E0023090E802321461F0BE
:141CFC002090E1023090E902321431F02090E2023090EA02EF
:141D1000321419F483E6FA018383442710C086E093E0E42FDB
:141D2400FF27E80FF91F2224208280EF92E0E42FFF27E80F7D
:141D3800F91F20824395443170F3222420921B03209205035D
:141D4C000E947C0522242092120159914991089580912C01B6
:141D60008F5F80932C01823018F4DC9ADD9802C0DC98DD9AEB
:141D740080912C01823018F0222420922C01089580912D0162
:141D88008F5F80932D01823018F4DE9ADF9802C0DE98DF9ABA
:141D9C0080912D01823018F0222420922D010895DC98DD988E
:141DB0000895DE98DF9808950E941C05C598F6DFF8DF87B7EE
:141DC400806887BF0E9436050FE012E006DF81E080931901AC
:141DD80003C00E947C051FDBFCCF08950E94FD16A801E897D2
:141DEC000FE70E941105AA241EC0EA2DFF27E40FF51F2080A5
:141E00003324822D8F3711F0803859F40FE70E941105EA2D37
:141E1400FF27E40FF51F00810E94110507C0EA2DFF27E40F5D
:141E2800F51F00810E941105A394FA0183818C5FA816E8F2A0
:141E3C0007A90E94110500E80E941105E8960C9402170E94B1
:141E50001F17A22EC02E0C2D0E9436104A2D55274034E0E042
:141E64005E0709F47CC04134E0E05E0709F49BC081E490E005
:141E78008417950754F04231E0E05E07A9F04331E0E05E0711
:141E8C0009F4B1C0E4C04036E0E05E0719F14136E0E05E07EF
:141EA00009F442C04236E0E05E0709F4BAC0D5C081E0809312
:141EB400310182E18093320120902F0130902E01320C209082
:141EC8003001320C20903101320C380E309265010EE211E028
:141EDC0083DFBDC083E08093310180E68093320122242092C7
:141EF000330181E08093340120902F0130902E01320C209044
:141F04003001320C20903101320C20903201320C2090330135
:141F1800320C380E309265010EE211E05FDF99C083E080931B
:141F2C00310181E680933201222420923301209234012090FF
:141F40002F0130902E01320C20903001320C20903101320CF1
:141F5400380E309265010EE211E042DF7CC083E08093310125
:141F680080E48093320184E08093330181E0809334012090B7
:141F7C002F0130902E01320C20903001320C20903101320CB5
:141F900020903201320C20903301320C380E309265010EE29C
:141FA40011E01EDF58C083E08093310180E48093320184E06D
:141FB8008093330122242092340120902F0130902E01320C94
:141FCC0020903001320C20903101320C20903201320C380E5B
:141FE00020903401320C309265010EE211E0FADE34C081E094
:141FF4008093310183E18093320120902F0130902E01320CDD
:1420080020903001320C20903101320C380E309265010EE227
:14201C0011E0E2DE1CC083E08093310182E680933201222487
:14203000209233012092340120902F0130902E01320C209012
:142044003001320C20903101320C380E309265010EE211E0AA
:14205800C5DE80912E018F3719F4222420922E010C942617BA
:14206C004A935A93402F55274130E0E05E0769F04230E0E08A
:142080005E0769F04330E0E05E0769F04430E0E05E0769F0AB
:142094000FC0AD9AAC9AAB980BC0AD9AAC98AB9807C0AD98F4
:1420A800AC9AAB9803C0AD98AC9AAB9880E0801720F40530CA
:1420BC0010F401E001C000275991499108950E94F216A22E68
:1420D000602F2E97C88CD98C43E0062FC7DF002311F403EADC
:1420E40054C00E94FA11062F02500E94121404C04A9511F430
:1420F80001EA49C09E012D5F3F4F06E20E94ED140023A1F7E1
:14210C00CE01059699838883222703E90E941315CE010D96BD
:14212000998388839E012B5F3F4F03E90E9446152D8422FE13
:1421340012C0CE01099699838883222705E90E941315CE0160
:142148000D96998388839E01275F3F4F05E90E944615AA82EF
:14215C008CE691E0998388839E012B5F3F4F00E60E94B01561
:14217000E02E002311F002EA0AC096010A2D0E940816A02E17
:14218400002311F003EA01C000272E960C94E7160E94F21643
:14219800A22E602F2E97C88CD98C43E0062F62DF002311F495
:1421AC0003EA52C0062F02500E94121404C04A9511F401EA3E
:1421C00049C09E012D5F3F4F06E20E94ED140023A1F7CE0134
:1421D400059699838883222703E90E941315CE010D969983A8
:1421E80088839E012B5F3F4F03E90E9446152D8422FE12C095
:1421FC00CE01099699838883222705E90E941315CE010D96C7
:14221000998388839E01275F3F4F05E90E944615AA828CE657
:1422240091E0998388839E012B5F3F4F00E60E94B015E02EFC
:14223800002311F002EA0AC096010A2D0E94E215A02E002360
:14224C0011F003EA01C000272E960C94E7163A932A930E941B
:14226000F216602F2297CE84E888F988CC2011F403EA2BC00E
:1422740080E08C1528F480E18C1510F041E00CC080E18C1548
:1422880028F480E28C1510F042E004C080E28C1508F443E01B
:14229C00CC2412C080E18C9D10012E0C3F1C398228822C8526
:1422B000220F220F2C0D062F08DFA02E002309F003C0C3945F
:1422C400C41660F30A2D22960E94E716229608950E94F2164C
:1422D800E22E602FE297CCACDDAC82E791E0FE01329600E355
:1422EC0010E0FA93EA939A938A930E943317442714C080E10E
:14230000849F1001CE010296280E391E398228822E2D220FB0
:14231400220F240F062F3CDFA02E002309F003C04395433009
:1423280050F380E390E0998388839E012E5F3F4F86010E9481
:14233C00BF160A2DE2960C94E7160E9411175901602F2A97F8
:1423500043E0062F8BDE002311F403EA24C0062F02500E9496
:14236400121404C04A9511F401EA1BC09E012A5F3F4F06E233
:142378000E94ED140023A1F7CE01029699838883222703E930
:14238C000E94131586E090E0998388839E012E5F3F4F850136
:1423A0000E94BF1600272A960C9418170E94F816680122972A
:1423B40081E080939F0381E48093A00322242092A1030E94A6
:1423C800BD14A02E002371F4A090A003AA2051F42090A103A4
:1423DC0033243982288222EA33E086010E94BF160A2D229625
:1423F0000C94D216AA9281E080939F0382E48093A00322249D
:142404002092A1030E94BD14A02E002311F4A090A0030A2DFB
:14241800A9900895AA9281E080939F0383E48093A003222425
:14242C002092A1030E94BD14A02E002311F4A090A0030A2DD3
:14244000A99008950E94F616C22EE02E2297A884B98481E083
:1424540080939F0385E48093A00388E08093A103E092A2036A
:14246800C092A30386E090E099838883950104EA13E00E9452
:14247C00BF160E94BD14A02E002311F4A090A0030A2D22964C
:142490000C94D7160E94F616C22EE02E2297A884B98481E07C
:1424A40080939F0385E48093A00382E18093A103E092A2031F
:1424B800C092A30380E190E099838883950104EA13E00E9407
:1424CC00BF160E94BD14A02E002311F4A090A0030A2D2296FC
:1424E0000C94D716AA92CA92A22EC02E81E080939F0386E485
:1424F4008093A00382E08093A103C092A203A092A3030E9494
:14250800BD14A02E002311F4A090A0030A2DC990A9900895BF
:14251C000E94F8166901A02E81E080939F0387E48093A0038C
:1425300081E08093A103A092A2030E94BD14A02E002341F40F
:14254400A090A003AA2021F42090A203F60120820A2D0C940C
:14255800D216AA92CA92C02E81E080939F0388E48093A003C9
:14256C0081E08093A103C092A2030E94BD14A02E002339F4BB
:14258000A090A003AA2019F40C2D0E9429140A2DC990A990BC
:1425940008950E94F81669015801229781E080939F038AE5E5
:1425A8008093A00384E08093A103992799838883950102EAE5
:1425BC0013E00E94BF160E94BD14A02E002371F4A090A00305
:1425D000AA2051F42090A10333243982288222EA33E0860132
:1425E4000E94BF160A2D22960C94D216AA92A02E82E0809376
:1425F8009F038CE48093A00381E08093A103A092A2030E9476
:14260C00BD14A02E002311F4A090A0030A2DA99008950E9471
:14262000CD160E94F2162297A8884A89CC88EE88FF88688D17
:1426340082E080939F038EE48093A003442321F484E0809360
:14264800A10321C0C092A603453451F4F70120802092A7034C
:14265C006093A80387E08093A10313C0463479F486E090E01E
:1426700099838883970107EA13E00E94BF166093AD038CE02D
:142684008093A10302C002EF12C00C840092A2030E8400921B
:14269800A303A092A4034093A5030E94BD14A02E002311F4CB
:1426AC00A090A0030A2D22960E94E716249608953A932A93D8
:1426C0000E94F216B8012297E888F988CA88DB88AC88BD88CB
:1426D4004FEF0E944714002309F441C080919F03807F209034
:1426E8009B03281609F038C044272090A203FB01208282E051
:1426FC0090E09983888323EA33E00C851D850E94BF162090B9
:14271000A503EE85FF8520822090A603F70120822090A60328
:1427240033243982288227EA33E086010E94BF168091A60309
:142738008B5E2090A103281681F480E190E09983888387EA34
:14274C0093E02091A6033327280F391F85010E94BF1601C005
:1427600042E0042F22960E94E716229608950E94F216B90100
:14277400A02E229748895989EA88FB88CC88DD8882E08093F4
:142788009F038FE48093A00381E08093A103A092A2030E94E1
:14279C00BD14A02E002309F03BC0A090A003AA2009F036C0E7
:1427B0002090A203FB01208282E090E09983888323EA33E009
:1427C4000C851D850E94BF162090A503EE85FF8520822090B6
:1427D800A603FA0120822090A60333243982288227EA33E06E
:1427EC0087010E94BF168091A6038B5E2090A103281671F440
:1428000080E190E09983888387EA93E02091A6033327280FFD
:14281400391F86010E94BF160A2D22960C94E716AA92A02EC4
:1428280081E080939F0389E48093A00381E08093A103A09219
:14283C00A2030E94BD14A02E002311F4A090A0030A2DA99037
:1428500008950093990308950027089520909703222011F0BA
:14286400002712C000919903F2DF20909803222011F00027B4
:1428780009C0222420929C03EBDF002311F0002701C001E035
:14288C00089520909C03222059F120909E038DE993E0E22D77
:1428A000FF27E80FF91F80818330E9F48091A1038A5F281682
:1428B400C1F40027222709C08EE993E0E22FFF27E80FF91FF2
:1428C80020800225239580919E038150281790F30F3F29F4CD
:1428DC00222420929C0301E004C0222420929C030027089551
:1428F000AA92CA928091A1038A5F80939E03CC24AA2409C063
:142904008EE993E0EA2DFF27E80FF91F2080C224A3948091BB
:142918009E038250A81690F38CE993E0E0919E03FF27E80FE0
:14292C00F91F2C2C209420828DE993E0E0919E03FF27E80FB9
:14294000F91F83E08083222420929D03AA240AC08EE993E0EB
:14295400EA2DFF27E80FF91F00810E941105A39420909E0362
:14296800A21490F3222420929C0301E0C990A99008954A939E
:14297C00B9DF002311F401E028C08EE190E090932801809380
:14299000270104C07CDF002309F008C0209027013090280147
:1429A4002220B1F73320A1F72090270130902801222021F432
:1429B800332011F441E00AC080919F03807F20909B0328168A
:1429CC0011F4442701C042E0042F499108950E94F8166901E0
:1429E000A02E229782E080939F0381E48093A00381E08093B6
:1429F400A103A092A2030E94BD14A02E002369F4A090A003C0
:142A0800AA2049F482E090E09983888322EA33E086010E9472
:142A1C00BF160A2D22960C94D2160E94F616A22EE02E229715
:142A3000C884D98482E080939F0382E48093A00386E080933D
:142A4400A103E092A203A092A30384E090E099838883960159
:142A580004EA13E00E94BF160E94BD14A02E002369F4A09021
:142A6C00A003AA2049F484E090E09983888322EA33E086010B
:142A80000E94BF160A2D22960C94D7160E94F6165901E02E39
:142A94002297C884D98482E080939F0383E48093A00385E033
:142AA8008093A103E092A20384E090E099838883950103EACE
:142ABC0013E00E94BF160E94BD14A02E002341F4A090A00330
:142AD000AA2021F42090A203F60120820A2D22960C94D716A9
:142AE400AA9282E080939F0384E48093A00322242092A103D1
:142AF8000E94BD14A02E002311F4A090A0030A2DA990089581
:142B0C000E94F4167901402F2297CA84AC8482E080939F03D2
:142B200085E48093A00387E08093A1034093A20384E090E018
:142B340099838883970103EA13E00E94BF16C092A703A09249
:142B4800A8030E94BD14A02E002311F4A090A0030A2D2296A3
:142B5C000C94DE160E94F4167901402F2297CA84DB84AC84A6
:142B700082E080939F0386E48093A0038CE08093A103409324
:142B8400A20384E090E099838883970103EA13E00E94BF16AE
:142B980086E090E099838883960107EA13E00E94BF16A09208
:142BAC00AD030E94BD14A02E002311F4A090A0030A2D22963A
:142BC0000C94DE160E94F8166901A02E229782E080939F03B5
:142BD40087E48093A00381E08093A103A092A2030E94BD146A
:142BE800A02E002369F4A090A003AA2049F480E190E09983C4
:142BFC00888322EA33E086010E94BF160A2D22960C94D21626
:142C10000E94F8165901C02E229782E080939F0388E4809369
:142C2400A00381E18093A103C092A20380E190E099838883F1
:142C3800950103EA13E00E94BF160E94BD14A02E002311F432
:142C4C00A090A0030A2D22960C94D2160E94F8165901C02E32
:142C6000229782E080939F0389E48093A00385E08093A10351
:142C7400C092A20384E090E099838883950103EA13E00E9442
:142C8800BF160E94BD14A02E002311F4A090A0030A2D229638
:142C9C000C94D2160E94F416E22E402F2297CA84DB84AC84DB
:142CB00082E080939F038AE48093A00387E08093A1034093E4
:142CC400A203E092A30384E090E099838883960104EA13E0CC
:142CD8000E94BF16A092A8030E94BD14A02E002311F4A090FB
:142CEC00A0030A2D22960C94DE163A932A930E94F216A02EAC
:142D000022976E857F8548895989EA88FB88CC88DD8882E04C
:142D140080939F038DE48093A00382E08093A103A092A203DF
:142D28000C840092A3030E94BD14A02E0023E9F4A090A003BB
:142D3C00AA20C9F482E090E09983888322EA33E08B010E94B6
:142D5000BF162090A403FA0120822090A503F701208233245D
:142D64003982288226EA33E086010E94BF160A2D22960E9444
:142D7800E71622960895A02FB12FE22FF32F88819981803040
:142D8C00980703C001900D920197E1F708953A932A931A935D
:142DA0000A930895A990B990C990D9900895A990B990C99029
:142DB400D990E990F9900895A990B990C990D990E990F990BD
:142DC800499159910895A990B990C990D990E990F990499176
:142DDC0059916991799108957A936A935A934A93FA92EA927C
:142DF000DA92CA92BA92AA9208955A934A93BA92AA920895F3
:142E0400A990B9904991599108957A936A935A934A93089566
:142E1800499159916991799108957A936A935A934A93BA9221
:142E2C00AA920895A990B990499159916991799108955A93E5
:142E40004A93DA92CA92BA92AA920895A990B990C990D99070
:142E5400499159910895112319F0000F1A95FBCF0895AA936A
:142E6800BA93EA93FA930A92AF81B885ED81FE8100300107D1
:142E7C0029F001900D9201501040F8CF0990F991E991B991AA
:062E9000A99124960895AB
:00000001FF
